{
  "_format": "hh-sol-artifact-1",
  "contractName": "CrazyVikingsClub",
  "sourceName": "contracts/CrazyVikingsClub.sol",
  "abi": [
    {
      "inputs": [
        {
          "internalType": "address",
          "name": "receiver",
          "type": "address"
        },
        {
          "internalType": "uint96",
          "name": "feeNumerator",
          "type": "uint96"
        }
      ],
      "stateMutability": "nonpayable",
      "type": "constructor"
    },
    {
      "inputs": [],
      "name": "ApprovalCallerNotOwnerNorApproved",
      "type": "error"
    },
    {
      "inputs": [],
      "name": "ApprovalQueryForNonexistentToken",
      "type": "error"
    },
    {
      "inputs": [],
      "name": "BalanceQueryForZeroAddress",
      "type": "error"
    },
    {
      "inputs": [],
      "name": "MintERC2309QuantityExceedsLimit",
      "type": "error"
    },
    {
      "inputs": [],
      "name": "MintToZeroAddress",
      "type": "error"
    },
    {
      "inputs": [],
      "name": "MintZeroQuantity",
      "type": "error"
    },
    {
      "inputs": [],
      "name": "OwnerQueryForNonexistentToken",
      "type": "error"
    },
    {
      "inputs": [],
      "name": "OwnershipNotInitializedForExtraData",
      "type": "error"
    },
    {
      "inputs": [],
      "name": "TransferCallerNotOwnerNorApproved",
      "type": "error"
    },
    {
      "inputs": [],
      "name": "TransferFromIncorrectOwner",
      "type": "error"
    },
    {
      "inputs": [],
      "name": "TransferToNonERC721ReceiverImplementer",
      "type": "error"
    },
    {
      "inputs": [],
      "name": "TransferToZeroAddress",
      "type": "error"
    },
    {
      "inputs": [],
      "name": "URIQueryForNonexistentToken",
      "type": "error"
    },
    {
      "inputs": [],
      "name": "maxSupplyReached",
      "type": "error"
    },
    {
      "anonymous": false,
      "inputs": [
        {
          "indexed": true,
          "internalType": "address",
          "name": "owner",
          "type": "address"
        },
        {
          "indexed": true,
          "internalType": "address",
          "name": "approved",
          "type": "address"
        },
        {
          "indexed": true,
          "internalType": "uint256",
          "name": "tokenId",
          "type": "uint256"
        }
      ],
      "name": "Approval",
      "type": "event"
    },
    {
      "anonymous": false,
      "inputs": [
        {
          "indexed": true,
          "internalType": "address",
          "name": "owner",
          "type": "address"
        },
        {
          "indexed": true,
          "internalType": "address",
          "name": "operator",
          "type": "address"
        },
        {
          "indexed": false,
          "internalType": "bool",
          "name": "approved",
          "type": "bool"
        }
      ],
      "name": "ApprovalForAll",
      "type": "event"
    },
    {
      "anonymous": false,
      "inputs": [
        {
          "indexed": true,
          "internalType": "uint256",
          "name": "fromTokenId",
          "type": "uint256"
        },
        {
          "indexed": false,
          "internalType": "uint256",
          "name": "toTokenId",
          "type": "uint256"
        },
        {
          "indexed": true,
          "internalType": "address",
          "name": "from",
          "type": "address"
        },
        {
          "indexed": true,
          "internalType": "address",
          "name": "to",
          "type": "address"
        }
      ],
      "name": "ConsecutiveTransfer",
      "type": "event"
    },
    {
      "anonymous": false,
      "inputs": [
        {
          "indexed": true,
          "internalType": "address",
          "name": "previousOwner",
          "type": "address"
        },
        {
          "indexed": true,
          "internalType": "address",
          "name": "newOwner",
          "type": "address"
        }
      ],
      "name": "OwnershipTransferred",
      "type": "event"
    },
    {
      "anonymous": false,
      "inputs": [
        {
          "indexed": true,
          "internalType": "address",
          "name": "from",
          "type": "address"
        },
        {
          "indexed": true,
          "internalType": "address",
          "name": "to",
          "type": "address"
        },
        {
          "indexed": true,
          "internalType": "uint256",
          "name": "tokenId",
          "type": "uint256"
        }
      ],
      "name": "Transfer",
      "type": "event"
    },
    {
      "inputs": [
        {
          "internalType": "address",
          "name": "to",
          "type": "address"
        },
        {
          "internalType": "uint256",
          "name": "tokenId",
          "type": "uint256"
        }
      ],
      "name": "approve",
      "outputs": [],
      "stateMutability": "payable",
      "type": "function"
    },
    {
      "inputs": [
        {
          "internalType": "address",
          "name": "owner",
          "type": "address"
        }
      ],
      "name": "balanceOf",
      "outputs": [
        {
          "internalType": "uint256",
          "name": "",
          "type": "uint256"
        }
      ],
      "stateMutability": "view",
      "type": "function"
    },
    {
      "inputs": [
        {
          "internalType": "uint256",
          "name": "tokenId",
          "type": "uint256"
        }
      ],
      "name": "getApproved",
      "outputs": [
        {
          "internalType": "address",
          "name": "",
          "type": "address"
        }
      ],
      "stateMutability": "view",
      "type": "function"
    },
    {
      "inputs": [
        {
          "internalType": "address",
          "name": "owner",
          "type": "address"
        },
        {
          "internalType": "address",
          "name": "operator",
          "type": "address"
        }
      ],
      "name": "isApprovedForAll",
      "outputs": [
        {
          "internalType": "bool",
          "name": "",
          "type": "bool"
        }
      ],
      "stateMutability": "view",
      "type": "function"
    },
    {
      "inputs": [
        {
          "internalType": "address",
          "name": "to",
          "type": "address"
        },
        {
          "internalType": "uint256",
          "name": "quantity",
          "type": "uint256"
        }
      ],
      "name": "mint",
      "outputs": [],
      "stateMutability": "nonpayable",
      "type": "function"
    },
    {
      "inputs": [],
      "name": "name",
      "outputs": [
        {
          "internalType": "string",
          "name": "",
          "type": "string"
        }
      ],
      "stateMutability": "view",
      "type": "function"
    },
    {
      "inputs": [],
      "name": "owner",
      "outputs": [
        {
          "internalType": "address",
          "name": "",
          "type": "address"
        }
      ],
      "stateMutability": "view",
      "type": "function"
    },
    {
      "inputs": [
        {
          "internalType": "uint256",
          "name": "tokenId",
          "type": "uint256"
        }
      ],
      "name": "ownerOf",
      "outputs": [
        {
          "internalType": "address",
          "name": "",
          "type": "address"
        }
      ],
      "stateMutability": "view",
      "type": "function"
    },
    {
      "inputs": [],
      "name": "renounceOwnership",
      "outputs": [],
      "stateMutability": "nonpayable",
      "type": "function"
    },
    {
      "inputs": [
        {
          "internalType": "uint256",
          "name": "tokenId",
          "type": "uint256"
        },
        {
          "internalType": "uint256",
          "name": "salePrice",
          "type": "uint256"
        }
      ],
      "name": "royaltyInfo",
      "outputs": [
        {
          "internalType": "address",
          "name": "",
          "type": "address"
        },
        {
          "internalType": "uint256",
          "name": "",
          "type": "uint256"
        }
      ],
      "stateMutability": "view",
      "type": "function"
    },
    {
      "inputs": [
        {
          "internalType": "address",
          "name": "from",
          "type": "address"
        },
        {
          "internalType": "address",
          "name": "to",
          "type": "address"
        },
        {
          "internalType": "uint256",
          "name": "tokenId",
          "type": "uint256"
        }
      ],
      "name": "safeTransferFrom",
      "outputs": [],
      "stateMutability": "payable",
      "type": "function"
    },
    {
      "inputs": [
        {
          "internalType": "address",
          "name": "from",
          "type": "address"
        },
        {
          "internalType": "address",
          "name": "to",
          "type": "address"
        },
        {
          "internalType": "uint256",
          "name": "tokenId",
          "type": "uint256"
        },
        {
          "internalType": "bytes",
          "name": "_data",
          "type": "bytes"
        }
      ],
      "name": "safeTransferFrom",
      "outputs": [],
      "stateMutability": "payable",
      "type": "function"
    },
    {
      "inputs": [
        {
          "internalType": "address",
          "name": "operator",
          "type": "address"
        },
        {
          "internalType": "bool",
          "name": "approved",
          "type": "bool"
        }
      ],
      "name": "setApprovalForAll",
      "outputs": [],
      "stateMutability": "nonpayable",
      "type": "function"
    },
    {
      "inputs": [
        {
          "internalType": "address",
          "name": "receiver",
          "type": "address"
        },
        {
          "internalType": "uint96",
          "name": "feeNumerator",
          "type": "uint96"
        }
      ],
      "name": "setDefaultRoyalty",
      "outputs": [],
      "stateMutability": "nonpayable",
      "type": "function"
    },
    {
      "inputs": [
        {
          "internalType": "uint256",
          "name": "tokenId",
          "type": "uint256"
        },
        {
          "internalType": "address",
          "name": "receiver",
          "type": "address"
        },
        {
          "internalType": "uint96",
          "name": "feeNumerator",
          "type": "uint96"
        }
      ],
      "name": "setTokenRoyalty",
      "outputs": [],
      "stateMutability": "nonpayable",
      "type": "function"
    },
    {
      "inputs": [
        {
          "internalType": "bytes4",
          "name": "interfaceId",
          "type": "bytes4"
        }
      ],
      "name": "supportsInterface",
      "outputs": [
        {
          "internalType": "bool",
          "name": "",
          "type": "bool"
        }
      ],
      "stateMutability": "view",
      "type": "function"
    },
    {
      "inputs": [],
      "name": "symbol",
      "outputs": [
        {
          "internalType": "string",
          "name": "",
          "type": "string"
        }
      ],
      "stateMutability": "view",
      "type": "function"
    },
    {
      "inputs": [
        {
          "internalType": "uint256",
          "name": "tokenId",
          "type": "uint256"
        }
      ],
      "name": "tokenURI",
      "outputs": [
        {
          "internalType": "string",
          "name": "",
          "type": "string"
        }
      ],
      "stateMutability": "view",
      "type": "function"
    },
    {
      "inputs": [],
      "name": "totalSupply",
      "outputs": [
        {
          "internalType": "uint256",
          "name": "",
          "type": "uint256"
        }
      ],
      "stateMutability": "view",
      "type": "function"
    },
    {
      "inputs": [
        {
          "internalType": "address",
          "name": "from",
          "type": "address"
        },
        {
          "internalType": "address",
          "name": "to",
          "type": "address"
        },
        {
          "internalType": "uint256",
          "name": "tokenId",
          "type": "uint256"
        }
      ],
      "name": "transferFrom",
      "outputs": [],
      "stateMutability": "payable",
      "type": "function"
    },
    {
      "inputs": [
        {
          "internalType": "address",
          "name": "newOwner",
          "type": "address"
        }
      ],
      "name": "transferOwnership",
      "outputs": [],
      "stateMutability": "nonpayable",
      "type": "function"
    }
  ],
  "bytecode": "0x60806040523480156200001157600080fd5b506040516200193038038062001930833981016040819052620000349162000219565b6040518060400160405280601281526020017121b930bd3c902b34b5b4b733b99021b63ab160711b8152506040518060400160405280600381526020016243564360e81b81525081600490816200008c919062000313565b5060056200009b828262000313565b5050600060025550620000ae33620000c2565b620000ba828262000114565b5050620003df565b600a80546001600160a01b038381166001600160a01b0319831681179093556040519116919082907f8be0079c531659141344cd1fd0a4f28419497f9722a3daafe3b4186f6b6457e090600090a35050565b6127106001600160601b0382161115620001885760405162461bcd60e51b815260206004820152602a60248201527f455243323938313a20726f79616c7479206665652077696c6c206578636565646044820152692073616c65507269636560b01b60648201526084015b60405180910390fd5b6001600160a01b038216620001e05760405162461bcd60e51b815260206004820152601960248201527f455243323938313a20696e76616c69642072656365697665720000000000000060448201526064016200017f565b604080518082019091526001600160a01b039092168083526001600160601b039091166020909201829052600160a01b90910217600055565b600080604083850312156200022d57600080fd5b82516001600160a01b03811681146200024557600080fd5b60208401519092506001600160601b03811681146200026357600080fd5b809150509250929050565b634e487b7160e01b600052604160045260246000fd5b600181811c908216806200029957607f821691505b602082108103620002ba57634e487b7160e01b600052602260045260246000fd5b50919050565b601f8211156200030e57600081815260208120601f850160051c81016020861015620002e95750805b601f850160051c820191505b818110156200030a57828155600101620002f5565b5050505b505050565b81516001600160401b038111156200032f576200032f6200026e565b620003478162000340845462000284565b84620002c0565b602080601f8311600181146200037f5760008415620003665750858301515b600019600386901b1c1916600185901b1785556200030a565b600085815260208120601f198616915b82811015620003b0578886015182559484019460019091019084016200038f565b5085821015620003cf5787850151600019600388901b60f8161c191681555b5050505050600190811b01905550565b61154180620003ef6000396000f3fe60806040526004361061012a5760003560e01c80635944c753116100ab57806395d89b411161006f57806395d89b411461032e578063a22cb46514610343578063b88d4fde14610363578063c87b56dd14610376578063e985e9c514610396578063f2fde38b146103b657600080fd5b80635944c7531461029b5780636352211e146102bb57806370a08231146102db578063715018a6146102fb5780638da5cb5b1461031057600080fd5b806318160ddd116100f257806318160ddd146101f357806323b872dd146102165780632a55205a1461022957806340c10f191461026857806342842e0e1461028857600080fd5b806301ffc9a71461012f57806304634d8d1461016457806306fdde0314610186578063081812fc146101a8578063095ea7b3146101e0575b600080fd5b34801561013b57600080fd5b5061014f61014a366004611011565b6103d6565b60405190151581526020015b60405180910390f35b34801561017057600080fd5b5061018461017f36600461105c565b6103f6565b005b34801561019257600080fd5b5061019b61040c565b60405161015b91906110df565b3480156101b457600080fd5b506101c86101c33660046110f2565b61049e565b6040516001600160a01b03909116815260200161015b565b6101846101ee36600461110b565b6104d9565b3480156101ff57600080fd5b50600354600254035b60405190815260200161015b565b610184610224366004611135565b6104e5565b34801561023557600080fd5b50610249610244366004611171565b61064a565b604080516001600160a01b03909316835260208301919091520161015b565b34801561027457600080fd5b5061018461028336600461110b565b6106f6565b610184610296366004611135565b61073e565b3480156102a757600080fd5b506101846102b6366004611193565b61075e565b3480156102c757600080fd5b506101c86102d63660046110f2565b610771565b3480156102e757600080fd5b506102086102f63660046111cf565b61077c565b34801561030757600080fd5b506101846107c2565b34801561031c57600080fd5b50600a546001600160a01b03166101c8565b34801561033a57600080fd5b5061019b6107d6565b34801561034f57600080fd5b5061018461035e3660046111ea565b6107e5565b61018461037136600461123c565b610851565b34801561038257600080fd5b5061019b6103913660046110f2565b610892565b3480156103a257600080fd5b5061014f6103b1366004611318565b61090d565b3480156103c257600080fd5b506101846103d13660046111cf565b61093b565b60006103e1826109b9565b806103f057506103f082610a07565b92915050565b6103fe610a3c565b6104088282610a96565b5050565b60606004805461041b90611342565b80601f016020809104026020016040519081016040528092919081815260200182805461044790611342565b80156104945780601f1061046957610100808354040283529160200191610494565b820191906000526020600020905b81548152906001019060200180831161047757829003601f168201915b5050505050905090565b60006104a982610b50565b6104bd576104bd6333d1c03960e21b610b96565b506000908152600860205260409020546001600160a01b031690565b61040882826001610ba0565b60006104f082610c43565b6001600160a01b0394851694909150811684146105165761051662a1148160e81b610b96565b60008281526008602052604090208054338082146001600160a01b0388169091141761055a57610546863361090d565b61055a5761055a632ce44b5f60e11b610b96565b801561056557600082555b6001600160a01b038681166000908152600760205260408082208054600019019055918716808252919020805460010190554260a01b17600160e11b17600085815260066020526040812091909155600160e11b841690036105f7576001840160008181526006602052604081205490036105f55760025481146105f55760008181526006602052604090208490555b505b6001600160a01b0385168481887fddf252ad1be2c89b69c2b068fc378daa952ba7f163c4a11628f55a4df523b3ef600080a48060000361064157610641633a954ecd60e21b610b96565b50505050505050565b60008281526001602090815260408083208151808301909252546001600160a01b038116808352600160a01b9091046001600160601b03169282019290925282916106bf5750604080518082019091526000546001600160a01b0381168252600160a01b90046001600160601b031660208201525b6020810151600090612710906106de906001600160601b031687611392565b6106e891906113a9565b915196919550909350505050565b6106fe610a3c565b6127108161070b60025490565b61071591906113cb565b11156107345760405163071ff01b60e41b815260040160405180910390fd5b6104088282610cd9565b61075983838360405180602001604052806000815250610851565b505050565b610766610a3c565b610759838383610d98565b60006103f082610c43565b60006001600160a01b03821661079c5761079c6323d3ad8160e21b610b96565b506001600160a01b031660009081526007602052604090205467ffffffffffffffff1690565b6107ca610a3c565b6107d46000610e63565b565b60606005805461041b90611342565b3360008181526009602090815260408083206001600160a01b03871680855290835292819020805460ff191686151590811790915590519081529192917f17307eab39ab6107e8899845ad3d59bd9653f200f220920489ca2b5937696c31910160405180910390a35050565b61085c8484846104e5565b6001600160a01b0383163b1561088c5761087884848484610eb5565b61088c5761088c6368d2bf6b60e11b610b96565b50505050565b606061089d82610b50565b6108b1576108b1630a14c4b560e41b610b96565b60006108bb610f97565b905080516000036108db5760405180602001604052806000815250610906565b806108e584610fb7565b6040516020016108f69291906113de565b6040516020818303038152906040525b9392505050565b6001600160a01b03918216600090815260096020908152604080832093909416825291909152205460ff1690565b610943610a3c565b6001600160a01b0381166109ad5760405162461bcd60e51b815260206004820152602660248201527f4f776e61626c653a206e6577206f776e657220697320746865207a65726f206160448201526564647265737360d01b60648201526084015b60405180910390fd5b6109b681610e63565b50565b60006301ffc9a760e01b6001600160e01b0319831614806109ea57506380ac58cd60e01b6001600160e01b03198316145b806103f05750506001600160e01b031916635b5e139f60e01b1490565b60006001600160e01b0319821663152a902d60e11b14806103f057506301ffc9a760e01b6001600160e01b03198316146103f0565b600a546001600160a01b031633146107d45760405162461bcd60e51b815260206004820181905260248201527f4f776e61626c653a2063616c6c6572206973206e6f7420746865206f776e657260448201526064016109a4565b6127106001600160601b0382161115610ac15760405162461bcd60e51b81526004016109a49061140d565b6001600160a01b038216610b175760405162461bcd60e51b815260206004820152601960248201527f455243323938313a20696e76616c69642072656365697665720000000000000060448201526064016109a4565b604080518082019091526001600160a01b039092168083526001600160601b039091166020909201829052600160a01b90910217600055565b6000600254821015610b915760005b5060008281526006602052604081205490819003610b8757610b8083611457565b9250610b5f565b600160e01b161590505b919050565b8060005260046000fd5b6000610bab83610771565b9050818015610bc35750336001600160a01b03821614155b15610be657610bd2813361090d565b610be657610be66367d9dca160e11b610b96565b60008381526008602052604080822080546001600160a01b0319166001600160a01b0388811691821790925591518693918516917f8c5be1e5ebec7d5bd14f71427d1e84f3dd0314c0f7b2291e5b200ac8c7c3b92591a450505050565b60008181526006602052604081205490819003610cb6576002548210610c7357610c73636f96cda160e11b610b96565b5b50600019016000818152600660205260409020548015610c7457600160e01b8116600003610ca157919050565b610cb1636f96cda160e11b610b96565b610c74565b600160e01b8116600003610cc957919050565b610b91636f96cda160e11b610b96565b6002546000829003610cf557610cf563b562e8dd60e01b610b96565b60008181526006602090815260408083206001600160a01b0387164260a01b6001881460e11b17811790915580845260079092528220805468010000000000000001860201905590819003610d5357610d53622e076360e81b610b96565b818301825b808360007fddf252ad1be2c89b69c2b068fc378daa952ba7f163c4a11628f55a4df523b3ef600080a4818160010191508103610d58575060025550505050565b6127106001600160601b0382161115610dc35760405162461bcd60e51b81526004016109a49061140d565b6001600160a01b038216610e195760405162461bcd60e51b815260206004820152601b60248201527f455243323938313a20496e76616c696420706172616d6574657273000000000060448201526064016109a4565b6040805180820182526001600160a01b0393841681526001600160601b0392831660208083019182526000968752600190529190942093519051909116600160a01b029116179055565b600a80546001600160a01b038381166001600160a01b0319831681179093556040519116919082907f8be0079c531659141344cd1fd0a4f28419497f9722a3daafe3b4186f6b6457e090600090a35050565b604051630a85bd0160e11b81526000906001600160a01b0385169063150b7a0290610eea90339089908890889060040161146e565b6020604051808303816000875af1925050508015610f25575060408051601f3d908101601f19168201909252610f22918101906114ab565b60015b610f7a573d808015610f53576040519150601f19603f3d011682016040523d82523d6000602084013e610f58565b606091505b508051600003610f7257610f726368d2bf6b60e11b610b96565b805181602001fd5b6001600160e01b031916630a85bd0160e11b149050949350505050565b60606040518060800160405280604381526020016114c960439139905090565b606060a06040510180604052602081039150506000815280825b600183039250600a81066030018353600a900480610fd15750819003601f19909101908152919050565b6001600160e01b0319811681146109b657600080fd5b60006020828403121561102357600080fd5b813561090681610ffb565b80356001600160a01b0381168114610b9157600080fd5b80356001600160601b0381168114610b9157600080fd5b6000806040838503121561106f57600080fd5b6110788361102e565b915061108660208401611045565b90509250929050565b60005b838110156110aa578181015183820152602001611092565b50506000910152565b600081518084526110cb81602086016020860161108f565b601f01601f19169290920160200192915050565b60208152600061090660208301846110b3565b60006020828403121561110457600080fd5b5035919050565b6000806040838503121561111e57600080fd5b6111278361102e565b946020939093013593505050565b60008060006060848603121561114a57600080fd5b6111538461102e565b92506111616020850161102e565b9150604084013590509250925092565b6000806040838503121561118457600080fd5b50508035926020909101359150565b6000806000606084860312156111a857600080fd5b833592506111b86020850161102e565b91506111c660408501611045565b90509250925092565b6000602082840312156111e157600080fd5b6109068261102e565b600080604083850312156111fd57600080fd5b6112068361102e565b91506020830135801515811461121b57600080fd5b809150509250929050565b634e487b7160e01b600052604160045260246000fd5b6000806000806080858703121561125257600080fd5b61125b8561102e565b93506112696020860161102e565b925060408501359150606085013567ffffffffffffffff8082111561128d57600080fd5b818701915087601f8301126112a157600080fd5b8135818111156112b3576112b3611226565b604051601f8201601f19908116603f011681019083821181831017156112db576112db611226565b816040528281528a60208487010111156112f457600080fd5b82602086016020830137600060208483010152809550505050505092959194509250565b6000806040838503121561132b57600080fd5b6113348361102e565b91506110866020840161102e565b600181811c9082168061135657607f821691505b60208210810361137657634e487b7160e01b600052602260045260246000fd5b50919050565b634e487b7160e01b600052601160045260246000fd5b80820281158282048414176103f0576103f061137c565b6000826113c657634e487b7160e01b600052601260045260246000fd5b500490565b808201808211156103f0576103f061137c565b600083516113f081846020880161108f565b83519083019061140481836020880161108f565b01949350505050565b6020808252602a908201527f455243323938313a20726f79616c7479206665652077696c6c206578636565646040820152692073616c65507269636560b01b606082015260800190565b6000816114665761146661137c565b506000190190565b6001600160a01b03858116825284166020820152604081018390526080606082018190526000906114a1908301846110b3565b9695505050505050565b6000602082840312156114bd57600080fd5b815161090681610ffb56fe697066733a2f2f62616679626569637168726e6177717278777a6a79737536377632617068716f787035357868777566747a6d63743775773668697271797063776d2fa264697066735822122041f59391e0025454fc0fe7b774ea528d46f0e11fb10d9605c8874a4b03d5259a64736f6c63430008120033",
  "linkReferences": {},
  "deployedLinkReferences": {}
}