{
  "_format": "hh-sol-artifact-1",
  "contractName": "CrazyVikingsShop",
  "sourceName": "contracts/CrazyVikingsShop.sol",
  "abi": [
    {
      "inputs": [
        {
          "internalType": "address",
          "name": "_crazyVikingsClub",
          "type": "address"
        },
        {
          "internalType": "uint256",
          "name": "_priceLevelOne",
          "type": "uint256"
        },
        {
          "internalType": "uint256",
          "name": "_priceLevelTwo",
          "type": "uint256"
        },
        {
          "internalType": "uint256",
          "name": "_priceLevelThree",
          "type": "uint256"
        }
      ],
      "stateMutability": "nonpayable",
      "type": "constructor"
    },
    {
      "inputs": [],
      "name": "FailedCall",
      "type": "error"
    },
    {
      "inputs": [],
      "name": "InvalidAmount",
      "type": "error"
    },
    {
      "inputs": [],
      "name": "NotOwner",
      "type": "error"
    },
    {
      "anonymous": false,
      "inputs": [
        {
          "indexed": true,
          "internalType": "address",
          "name": "previousOwner",
          "type": "address"
        },
        {
          "indexed": true,
          "internalType": "address",
          "name": "newOwner",
          "type": "address"
        }
      ],
      "name": "OwnershipTransferred",
      "type": "event"
    },
    {
      "inputs": [],
      "name": "CrazyVikingsClub",
      "outputs": [
        {
          "internalType": "contract IERC721A",
          "name": "",
          "type": "address"
        }
      ],
      "stateMutability": "view",
      "type": "function"
    },
    {
      "inputs": [],
      "name": "EPICS_THRESHOLD",
      "outputs": [
        {
          "internalType": "uint256",
          "name": "",
          "type": "uint256"
        }
      ],
      "stateMutability": "view",
      "type": "function"
    },
    {
      "inputs": [],
      "name": "SPECIALS_THRESHOLD",
      "outputs": [
        {
          "internalType": "uint256",
          "name": "",
          "type": "uint256"
        }
      ],
      "stateMutability": "view",
      "type": "function"
    },
    {
      "inputs": [
        {
          "internalType": "uint256",
          "name": "tokenId",
          "type": "uint256"
        }
      ],
      "name": "getPrice",
      "outputs": [
        {
          "internalType": "uint256",
          "name": "",
          "type": "uint256"
        }
      ],
      "stateMutability": "view",
      "type": "function"
    },
    {
      "inputs": [],
      "name": "owner",
      "outputs": [
        {
          "internalType": "address",
          "name": "",
          "type": "address"
        }
      ],
      "stateMutability": "view",
      "type": "function"
    },
    {
      "inputs": [],
      "name": "priceLevelOne",
      "outputs": [
        {
          "internalType": "uint256",
          "name": "",
          "type": "uint256"
        }
      ],
      "stateMutability": "view",
      "type": "function"
    },
    {
      "inputs": [],
      "name": "priceLevelThree",
      "outputs": [
        {
          "internalType": "uint256",
          "name": "",
          "type": "uint256"
        }
      ],
      "stateMutability": "view",
      "type": "function"
    },
    {
      "inputs": [],
      "name": "priceLevelTwo",
      "outputs": [
        {
          "internalType": "uint256",
          "name": "",
          "type": "uint256"
        }
      ],
      "stateMutability": "view",
      "type": "function"
    },
    {
      "inputs": [
        {
          "internalType": "uint256",
          "name": "tokenId",
          "type": "uint256"
        }
      ],
      "name": "purchase",
      "outputs": [],
      "stateMutability": "payable",
      "type": "function"
    },
    {
      "inputs": [],
      "name": "renounceOwnership",
      "outputs": [],
      "stateMutability": "nonpayable",
      "type": "function"
    },
    {
      "inputs": [
        {
          "internalType": "uint256",
          "name": "_newPrice",
          "type": "uint256"
        }
      ],
      "name": "setPriceLevelOne",
      "outputs": [],
      "stateMutability": "nonpayable",
      "type": "function"
    },
    {
      "inputs": [
        {
          "internalType": "uint256",
          "name": "_newPrice",
          "type": "uint256"
        }
      ],
      "name": "setPriceLevelThree",
      "outputs": [],
      "stateMutability": "nonpayable",
      "type": "function"
    },
    {
      "inputs": [
        {
          "internalType": "uint256",
          "name": "_newPrice",
          "type": "uint256"
        }
      ],
      "name": "setPriceLevelTwo",
      "outputs": [],
      "stateMutability": "nonpayable",
      "type": "function"
    },
    {
      "inputs": [
        {
          "internalType": "address",
          "name": "to",
          "type": "address"
        },
        {
          "internalType": "uint256",
          "name": "tokenId",
          "type": "uint256"
        }
      ],
      "name": "transferNFT",
      "outputs": [],
      "stateMutability": "nonpayable",
      "type": "function"
    },
    {
      "inputs": [
        {
          "internalType": "address",
          "name": "newOwner",
          "type": "address"
        }
      ],
      "name": "transferOwnership",
      "outputs": [],
      "stateMutability": "nonpayable",
      "type": "function"
    },
    {
      "inputs": [],
      "name": "withdraw",
      "outputs": [],
      "stateMutability": "nonpayable",
      "type": "function"
    }
  ],
  "bytecode": "0x60a060405234801561001057600080fd5b506040516108e03803806108e083398101604081905261002f916100a7565b61003833610057565b6001600160a01b039093166080526001919091556002556003556100f2565b600080546001600160a01b038381166001600160a01b0319831681178455604051919092169283917f8be0079c531659141344cd1fd0a4f28419497f9722a3daafe3b4186f6b6457e09190a35050565b600080600080608085870312156100bd57600080fd5b84516001600160a01b03811681146100d457600080fd5b60208601516040870151606090970151919890975090945092505050565b6080516107be61012260003960008181610155015281816103b50152818161047e015261055f01526107be6000f3fe6080604052600436106100f35760003560e01c806394ab67fe1161008a578063ee0d717111610059578063ee0d717114610278578063efef39a114610298578063f2fde38b146102ab578063f5ca82ac146102cb57600080fd5b806394ab67fe14610202578063c9a22ed814610222578063e757223014610238578063e7b662621461025857600080fd5b80634924f095116100c65780634924f095146101a457806361ac94de146101b9578063715018a6146101cf5780638da5cb5b146101e457600080fd5b8063064d9d1e146100f857806311ac91ef14610121578063211a9940146101435780633ccfd60b1461018f575b600080fd5b34801561010457600080fd5b5061010e60025481565b6040519081526020015b60405180910390f35b34801561012d57600080fd5b5061014161013c3660046106ed565b6102e1565b005b34801561014f57600080fd5b506101777f000000000000000000000000000000000000000000000000000000000000000081565b6040516001600160a01b039091168152602001610118565b34801561019b57600080fd5b506101416102ee565b3480156101b057600080fd5b5061010e601e81565b3480156101c557600080fd5b5061010e61019081565b3480156101db57600080fd5b5061014161036d565b3480156101f057600080fd5b506000546001600160a01b0316610177565b34801561020e57600080fd5b5061014161021d36600461071b565b610381565b34801561022e57600080fd5b5061010e60035481565b34801561024457600080fd5b5061010e6102533660046106ed565b610415565b34801561026457600080fd5b506101416102733660046106ed565b610442565b34801561028457600080fd5b506101416102933660046106ed565b61044f565b6101416102a63660046106ed565b61045c565b3480156102b757600080fd5b506101416102c6366004610747565b6105c8565b3480156102d757600080fd5b5061010e60015481565b6102e9610643565b600255565b6102f6610643565b600080546040516001600160a01b039091169047908381818185875af1925050503d8060008114610343576040519150601f19603f3d011682016040523d82523d6000602084013e610348565b606091505b505090508061036a5760405163d6bda27560e01b815260040160405180910390fd5b50565b610375610643565b61037f600061069d565b565b610389610643565b6040516323b872dd60e01b81523060048201526001600160a01b038381166024830152604482018390527f000000000000000000000000000000000000000000000000000000000000000016906323b872dd90606401600060405180830381600087803b1580156103f957600080fd5b505af115801561040d573d6000803e3d6000fd5b505050505050565b6000601e82106104385761019082106104305760015461043c565b60025461043c565b6003545b92915050565b61044a610643565b600155565b610457610643565b600355565b6040516331a9108f60e11b815260048101829052819030906001600160a01b037f00000000000000000000000000000000000000000000000000000000000000001690636352211e90602401602060405180830381865afa1580156104c5573d6000803e3d6000fd5b505050506040513d601f19601f820116820180604052508101906104e9919061076b565b6001600160a01b031614610510576040516330cd747160e01b815260040160405180910390fd5b600061051b83610415565b905080341461053d5760405163162908e360e11b815260040160405180910390fd5b6040516323b872dd60e01b8152306004820152336024820152604481018490527f00000000000000000000000000000000000000000000000000000000000000006001600160a01b0316906323b872dd90606401600060405180830381600087803b1580156105ab57600080fd5b505af11580156105bf573d6000803e3d6000fd5b50505050505050565b6105d0610643565b6001600160a01b03811661063a5760405162461bcd60e51b815260206004820152602660248201527f4f776e61626c653a206e6577206f776e657220697320746865207a65726f206160448201526564647265737360d01b60648201526084015b60405180910390fd5b61036a8161069d565b6000546001600160a01b0316331461037f5760405162461bcd60e51b815260206004820181905260248201527f4f776e61626c653a2063616c6c6572206973206e6f7420746865206f776e65726044820152606401610631565b600080546001600160a01b038381166001600160a01b0319831681178455604051919092169283917f8be0079c531659141344cd1fd0a4f28419497f9722a3daafe3b4186f6b6457e09190a35050565b6000602082840312156106ff57600080fd5b5035919050565b6001600160a01b038116811461036a57600080fd5b6000806040838503121561072e57600080fd5b823561073981610706565b946020939093013593505050565b60006020828403121561075957600080fd5b813561076481610706565b9392505050565b60006020828403121561077d57600080fd5b81516107648161070656fea26469706673582212206e8415d343a3d3f52ff3bd1e19507a849404cd39838c9966fae496694f5d277164736f6c63430008120033",
  "linkReferences": {},
  "deployedLinkReferences": {}
}